{
  "_format": "hh-sol-artifact-1",
  "contractName": "EmployeeManagement",
  "sourceName": "contracts/EmployeeManagement.sol",
  "abi": [
    {
      "inputs": [
        {
          "internalType": "address",
          "name": "_adminAddress",
          "type": "address"
        }
      ],
      "stateMutability": "nonpayable",
      "type": "constructor"
    },
    {
      "anonymous": false,
      "inputs": [
        {
          "indexed": false,
          "internalType": "uint256",
          "name": "employeeId",
          "type": "uint256"
        },
        {
          "indexed": false,
          "internalType": "enum EmployeeManagement.EmployeeStatus",
          "name": "newStatus",
          "type": "uint8"
        },
        {
          "indexed": true,
          "internalType": "address",
          "name": "reviewer",
          "type": "address"
        }
      ],
      "name": "EmployeeReviewed",
      "type": "event"
    },
    {
      "anonymous": false,
      "inputs": [
        {
          "indexed": false,
          "internalType": "uint256",
          "name": "employeeId",
          "type": "uint256"
        },
        {
          "indexed": true,
          "internalType": "address",
          "name": "submitter",
          "type": "address"
        }
      ],
      "name": "EmployeeSubmitted",
      "type": "event"
    },
    {
      "inputs": [],
      "name": "adminAddress",
      "outputs": [
        {
          "internalType": "address",
          "name": "",
          "type": "address"
        }
      ],
      "stateMutability": "view",
      "type": "function"
    },
    {
      "inputs": [
        {
          "internalType": "uint256",
          "name": "",
          "type": "uint256"
        }
      ],
      "name": "employees",
      "outputs": [
        {
          "internalType": "uint256",
          "name": "employeeId",
          "type": "uint256"
        },
        {
          "internalType": "string",
          "name": "fullName",
          "type": "string"
        },
        {
          "internalType": "uint256",
          "name": "age",
          "type": "uint256"
        },
        {
          "internalType": "string",
          "name": "position",
          "type": "string"
        },
        {
          "internalType": "string",
          "name": "department",
          "type": "string"
        },
        {
          "internalType": "string",
          "name": "documentIpfsHash",
          "type": "string"
        },
        {
          "internalType": "enum EmployeeManagement.EmployeeStatus",
          "name": "status",
          "type": "uint8"
        },
        {
          "internalType": "address",
          "name": "submitter",
          "type": "address"
        },
        {
          "internalType": "address",
          "name": "reviewer",
          "type": "address"
        }
      ],
      "stateMutability": "view",
      "type": "function"
    },
    {
      "inputs": [],
      "name": "getAllEmployeeIds",
      "outputs": [
        {
          "internalType": "uint256[]",
          "name": "",
          "type": "uint256[]"
        }
      ],
      "stateMutability": "view",
      "type": "function"
    },
    {
      "inputs": [],
      "name": "nextEmployeeId",
      "outputs": [
        {
          "internalType": "uint256",
          "name": "",
          "type": "uint256"
        }
      ],
      "stateMutability": "view",
      "type": "function"
    },
    {
      "inputs": [
        {
          "internalType": "uint256",
          "name": "_employeeId",
          "type": "uint256"
        },
        {
          "internalType": "enum EmployeeManagement.EmployeeStatus",
          "name": "_newStatus",
          "type": "uint8"
        }
      ],
      "name": "reviewEmployee",
      "outputs": [],
      "stateMutability": "nonpayable",
      "type": "function"
    },
    {
      "inputs": [
        {
          "internalType": "string",
          "name": "_fullName",
          "type": "string"
        },
        {
          "internalType": "uint256",
          "name": "_age",
          "type": "uint256"
        },
        {
          "internalType": "string",
          "name": "_position",
          "type": "string"
        },
        {
          "internalType": "string",
          "name": "_department",
          "type": "string"
        },
        {
          "internalType": "string",
          "name": "_documentIpfsHash",
          "type": "string"
        }
      ],
      "name": "submitEmployee",
      "outputs": [],
      "stateMutability": "nonpayable",
      "type": "function"
    }
  ],
  "bytecode": "0x60806040526001805534801561001457600080fd5b506040516116d93803806116d9833981810160405281019061003691906100e0565b80600260006101000a81548173ffffffffffffffffffffffffffffffffffffffff021916908373ffffffffffffffffffffffffffffffffffffffff1602179055505061010d565b600080fd5b600073ffffffffffffffffffffffffffffffffffffffff82169050919050565b60006100ad82610082565b9050919050565b6100bd816100a2565b81146100c857600080fd5b50565b6000815190506100da816100b4565b92915050565b6000602082840312156100f6576100f561007d565b5b6000610104848285016100cb565b91505092915050565b6115bd8061011c6000396000f3fe608060405234801561001057600080fd5b50600436106100625760003560e01c806306f76c24146100675780631fcf522f146100835780634739326b146100a1578063615f5f87146100d95780636619451b146100f5578063fc6f946814610113575b600080fd5b610081600480360381019061007c9190610b4e565b610131565b005b61008b610362565b6040516100989190610cf7565b60405180910390f35b6100bb60048036038101906100b69190610d19565b610410565b6040516100d099989796959493929190610e8c565b60405180910390f35b6100f360048036038101906100ee9190610f5a565b6106cb565b005b6100fd610992565b60405161010a9190610f9a565b60405180910390f35b61011b610998565b6040516101289190610fb5565b60405180910390f35b60006001600081548092919061014690610fff565b919050559050604051806101200160405280828152602001878152602001868152602001858152602001848152602001838152602001600060028111156101905761018f610dd4565b5b81526020013373ffffffffffffffffffffffffffffffffffffffff168152602001600073ffffffffffffffffffffffffffffffffffffffff168152506000808381526020019081526020016000206000820151816000015560208201518160010190816101fd9190611253565b5060408201518160020155606082015181600301908161021d9190611253565b5060808201518160040190816102339190611253565b5060a08201518160050190816102499190611253565b5060c08201518160060160006101000a81548160ff0219169083600281111561027557610274610dd4565b5b021790555060e08201518160060160016101000a81548173ffffffffffffffffffffffffffffffffffffffff021916908373ffffffffffffffffffffffffffffffffffffffff1602179055506101008201518160070160006101000a81548173ffffffffffffffffffffffffffffffffffffffff021916908373ffffffffffffffffffffffffffffffffffffffff1602179055509050503373ffffffffffffffffffffffffffffffffffffffff167f2591b072b6a42c82a755727a0fd30bd0863eeace13c55b545ae0ce77a017b2b4826040516103529190610f9a565b60405180910390a2505050505050565b60606000600180546103749190611325565b67ffffffffffffffff81111561038d5761038c6109ed565b5b6040519080825280602002602001820160405280156103bb5781602001602082028036833780820191505090505b5090506000600190505b6001548110156104085780826001836103de9190611325565b815181106103ef576103ee611359565b5b60200260200101818152505080806001019150506103c5565b508091505090565b600060205280600052604060002060009150905080600001549080600101805461043990611076565b80601f016020809104026020016040519081016040528092919081815260200182805461046590611076565b80156104b25780601f10610487576101008083540402835291602001916104b2565b820191906000526020600020905b81548152906001019060200180831161049557829003601f168201915b5050505050908060020154908060030180546104cd90611076565b80601f01602080910402602001604051908101604052809291908181526020018280546104f990611076565b80156105465780601f1061051b57610100808354040283529160200191610546565b820191906000526020600020905b81548152906001019060200180831161052957829003601f168201915b50505050509080600401805461055b90611076565b80601f016020809104026020016040519081016040528092919081815260200182805461058790611076565b80156105d45780601f106105a9576101008083540402835291602001916105d4565b820191906000526020600020905b8154815290600101906020018083116105b757829003601f168201915b5050505050908060050180546105e990611076565b80601f016020809104026020016040519081016040528092919081815260200182805461061590611076565b80156106625780601f1061063757610100808354040283529160200191610662565b820191906000526020600020905b81548152906001019060200180831161064557829003601f168201915b5050505050908060060160009054906101000a900460ff16908060060160019054906101000a900473ffffffffffffffffffffffffffffffffffffffff16908060070160009054906101000a900473ffffffffffffffffffffffffffffffffffffffff16905089565b600260009054906101000a900473ffffffffffffffffffffffffffffffffffffffff1673ffffffffffffffffffffffffffffffffffffffff163373ffffffffffffffffffffffffffffffffffffffff161461075b576040517f08c379a0000000000000000000000000000000000000000000000000000000008152600401610752906113fa565b60405180910390fd5b60008211801561076c575060015482105b6107ab576040517f08c379a00000000000000000000000000000000000000000000000000000000081526004016107a290611466565b60405180910390fd5b600160028111156107bf576107be610dd4565b5b8160028111156107d2576107d1610dd4565b5b148061080157506002808111156107ec576107eb610dd4565b5b8160028111156107ff576107fe610dd4565b5b145b610840576040517f08c379a0000000000000000000000000000000000000000000000000000000008152600401610837906114d2565b60405180910390fd5b600080600084815260200190815260200160002090506000600281111561086a57610869610dd4565b5b8160060160009054906101000a900460ff16600281111561088e5761088d610dd4565b5b146108ce576040517f08c379a00000000000000000000000000000000000000000000000000000000081526004016108c59061153e565b60405180910390fd5b818160060160006101000a81548160ff021916908360028111156108f5576108f4610dd4565b5b0217905550338160070160006101000a81548173ffffffffffffffffffffffffffffffffffffffff021916908373ffffffffffffffffffffffffffffffffffffffff1602179055503373ffffffffffffffffffffffffffffffffffffffff167fa7f1ffb8bddc600b3dbaad851b0441c9db6cd3fd1baf28ad326f2c0007cc751e848460405161098592919061155e565b60405180910390a2505050565b60015481565b600260009054906101000a900473ffffffffffffffffffffffffffffffffffffffff1681565b6000604051905090565b600080fd5b600080fd5b600080fd5b600080fd5b6000601f19601f8301169050919050565b7f4e487b7100000000000000000000000000000000000000000000000000000000600052604160045260246000fd5b610a25826109dc565b810181811067ffffffffffffffff82111715610a4457610a436109ed565b5b80604052505050565b6000610a576109be565b9050610a638282610a1c565b919050565b600067ffffffffffffffff821115610a8357610a826109ed565b5b610a8c826109dc565b9050602081019050919050565b82818337600083830152505050565b6000610abb610ab684610a68565b610a4d565b905082815260208101848484011115610ad757610ad66109d7565b5b610ae2848285610a99565b509392505050565b600082601f830112610aff57610afe6109d2565b5b8135610b0f848260208601610aa8565b91505092915050565b6000819050919050565b610b2b81610b18565b8114610b3657600080fd5b50565b600081359050610b4881610b22565b92915050565b600080600080600060a08688031215610b6a57610b696109c8565b5b600086013567ffffffffffffffff811115610b8857610b876109cd565b5b610b9488828901610aea565b9550506020610ba588828901610b39565b945050604086013567ffffffffffffffff811115610bc657610bc56109cd565b5b610bd288828901610aea565b935050606086013567ffffffffffffffff811115610bf357610bf26109cd565b5b610bff88828901610aea565b925050608086013567ffffffffffffffff811115610c2057610c1f6109cd565b5b610c2c88828901610aea565b9150509295509295909350565b600081519050919050565b600082825260208201905092915050565b6000819050602082019050919050565b610c6e81610b18565b82525050565b6000610c808383610c65565b60208301905092915050565b6000602082019050919050565b6000610ca482610c39565b610cae8185610c44565b9350610cb983610c55565b8060005b83811015610cea578151610cd18882610c74565b9750610cdc83610c8c565b925050600181019050610cbd565b5085935050505092915050565b60006020820190508181036000830152610d118184610c99565b905092915050565b600060208284031215610d2f57610d2e6109c8565b5b6000610d3d84828501610b39565b91505092915050565b610d4f81610b18565b82525050565b600081519050919050565b600082825260208201905092915050565b60005b83811015610d8f578082015181840152602081019050610d74565b60008484015250505050565b6000610da682610d55565b610db08185610d60565b9350610dc0818560208601610d71565b610dc9816109dc565b840191505092915050565b7f4e487b7100000000000000000000000000000000000000000000000000000000600052602160045260246000fd5b60038110610e1457610e13610dd4565b5b50565b6000819050610e2582610e03565b919050565b6000610e3582610e17565b9050919050565b610e4581610e2a565b82525050565b600073ffffffffffffffffffffffffffffffffffffffff82169050919050565b6000610e7682610e4b565b9050919050565b610e8681610e6b565b82525050565b600061012082019050610ea2600083018c610d46565b8181036020830152610eb4818b610d9b565b9050610ec3604083018a610d46565b8181036060830152610ed58189610d9b565b90508181036080830152610ee98188610d9b565b905081810360a0830152610efd8187610d9b565b9050610f0c60c0830186610e3c565b610f1960e0830185610e7d565b610f27610100830184610e7d565b9a9950505050505050505050565b60038110610f4257600080fd5b50565b600081359050610f5481610f35565b92915050565b60008060408385031215610f7157610f706109c8565b5b6000610f7f85828601610b39565b9250506020610f9085828601610f45565b9150509250929050565b6000602082019050610faf6000830184610d46565b92915050565b6000602082019050610fca6000830184610e7d565b92915050565b7f4e487b7100000000000000000000000000000000000000000000000000000000600052601160045260246000fd5b600061100a82610b18565b91507fffffffffffffffffffffffffffffffffffffffffffffffffffffffffffffffff820361103c5761103b610fd0565b5b600182019050919050565b7f4e487b7100000000000000000000000000000000000000000000000000000000600052602260045260246000fd5b6000600282049050600182168061108e57607f821691505b6020821081036110a1576110a0611047565b5b50919050565b60008190508160005260206000209050919050565b60006020601f8301049050919050565b600082821b905092915050565b6000600883026111097fffffffffffffffffffffffffffffffffffffffffffffffffffffffffffffffff826110cc565b61111386836110cc565b95508019841693508086168417925050509392505050565b6000819050919050565b600061115061114b61114684610b18565b61112b565b610b18565b9050919050565b6000819050919050565b61116a83611135565b61117e61117682611157565b8484546110d9565b825550505050565b600090565b611193611186565b61119e818484611161565b505050565b5b818110156111c2576111b760008261118b565b6001810190506111a4565b5050565b601f821115611207576111d8816110a7565b6111e1846110bc565b810160208510156111f0578190505b6112046111fc856110bc565b8301826111a3565b50505b505050565b600082821c905092915050565b600061122a6000198460080261120c565b1980831691505092915050565b60006112438383611219565b9150826002028217905092915050565b61125c82610d55565b67ffffffffffffffff811115611275576112746109ed565b5b61127f8254611076565b61128a8282856111c6565b600060209050601f8311600181146112bd57600084156112ab578287015190505b6112b58582611237565b86555061131d565b601f1984166112cb866110a7565b60005b828110156112f3578489015182556001820191506020850194506020810190506112ce565b86831015611310578489015161130c601f891682611219565b8355505b6001600288020188555050505b505050505050565b600061133082610b18565b915061133b83610b18565b925082820390508181111561135357611352610fd0565b5b92915050565b7f4e487b7100000000000000000000000000000000000000000000000000000000600052603260045260246000fd5b7f4f6e6c792041646d696e2063616e20706572666f726d2074686973206163746960008201527f6f6e2e0000000000000000000000000000000000000000000000000000000000602082015250565b60006113e4602383610d60565b91506113ef82611388565b604082019050919050565b60006020820190508181036000830152611413816113d7565b9050919050565b7f496e76616c696420456d706c6f7965652049442e000000000000000000000000600082015250565b6000611450601483610d60565b915061145b8261141a565b602082019050919050565b6000602082019050818103600083015261147f81611443565b9050919050565b7f496e76616c6964205374617475732e0000000000000000000000000000000000600082015250565b60006114bc600f83610d60565b91506114c782611486565b602082019050919050565b600060208201905081810360008301526114eb816114af565b9050919050565b7f456d706c6f79656520616c72656164792072657669657765642e000000000000600082015250565b6000611528601a83610d60565b9150611533826114f2565b602082019050919050565b600060208201905081810360008301526115578161151b565b9050919050565b60006040820190506115736000830185610d46565b6115806020830184610e3c565b939250505056fea26469706673582212206b40c7d5d29e6055638e5a66ae9cd83e6f1ffe08bba1745984671b873e9beac064736f6c634300081c0033",
  "linkReferences": {},
  "deployedLinkReferences": {}
}